:020000040000FA
:04000000FCEF08F019
:10060000004445534C49474144410045737461647B
:100610006F3A20004452454E414E444F00455343EB
:100620004F414E444F00454E4348454E444F004CC9
:1006300049515549444F004C4156414E444F0000EA
:1006400033043410D8A427EF03F029EF03F04AEF66
:1006500003F081B02EEF03F030EF03F04AEF03F028
:10066000000E346E000E336E818E370E5D6E000EFE
:100670005E6E040E5F6E060E606E91EC08F0E6ECA6
:1006800008F0340E6B6EF20EE82EFED76B2EFCD700
:10069000E5EF04F033503410D8A451EF03F053EFDA
:1006A00003F06DEF03F081B258EF03F05AEF03F05F
:1006B0006DEF03F0000E326E010E316E818C818A77
:1006C000370E5D6E000E5E6E260E5F6E060E606E5D
:1006D00091EC08F0828A3FEF03F031043210D8A485
:1006E00074EF03F076EF03F0D4EF03F081A07BEF1B
:1006F00003F07DEF03F084EF03F081B282EF03F0AB
:1007000084EF03F09DEF03F0829A000E326E000E2C
:10071000316E000E2A6E010E296E819C818A370E81
:100720005D6E000E5E6E1D0E5F6E060E606E91ECCD
:1007300008F0E6EC08F0E5EF04F081B4A2EF03F076
:10074000A4EF03F0E5EF04F0829A8284000E326E8B
:10075000000E316E8188370E5D6E000E5E6E370EB4
:100760005F6E060E606E91EC08F0000E306E010EAA
:100770002F6EE6EC08F0030E6C6E080E6B6E770EB3
:10078000E82EFED76B2EFCD76C2EFAD700F0000EA9
:100790004F6E140E4E6EE6EC04F04EC035F04FC0B6
:1007A00036F08294E5EF04F02F043010D8A4DBEF8C
:1007B00003F0DDEF03F025EF04F081A0E2EF03F09A
:1007C000E4EF03F0EBEF03F081B2E9EF03F0EBEFBE
:1007D00003F001EF04F0000E306E000E2F6E000EDD
:1007E0002A6E010E296E818A819C370E5D6E000E85
:1007F0005E6E1D0E5F6E060E606E91EC08F099EF56
:1008000003F035043610D8A408EF04F00AEF04F022
:10081000E5EF04F0000E306E000E2F6E000E2E6E0F
:10082000010E2D6E8198370E5D6E000E5E6E140EF9
:100830005F6E060E606E91EC08F0E6EC08F0000EBC
:10084000366E000E356EE5EF04F02D042E10D8A4A0
:100850002CEF04F02EEF04F082EF04F081B433EFBC
:1008600004F035EF04F05EEF04F081B63AEF04F0E7
:100870003CEF04F05EEF04F0000E2E6E000E2D6EC5
:10088000000E2C6E010E2B6E819C819A370E5D6ED0
:10089000000E5E6E2F0E5F6E060E606E91EC08F01D
:1008A000E6EC08F0000E4F6E020E4E6EE6EC04F021
:1008B0004EC035F04FC036F0E5EF04F081A263EF93
:1008C00004F065EF04F06CEF04F081B06AEF04F01F
:1008D0006CEF04F0E5EF04F0000E2E6E000E2D6EAE
:1008E000000E2A6E010E296E819C818A370E5D6E84
:1008F000000E5E6E1D0E5F6E060E606E91EC08F0CF
:1009000099EF03F02B042C10D8A489EF04F08BEF9F
:1009100004F0BCEF04F081A290EF04F092EF04F039
:10092000A2EF04F081A097EF04F099EF04F0A2EF9A
:1009300004F035043610D8A4A0EF04F0A2EF04F0C0
:10094000BCEF04F0000E366E000E356E000E2C6EFD
:10095000000E2B6E000E2A6E010E296E819C818A7C
:10096000370E5D6E000E5E6E1D0E5F6E060E606EC3
:1009700091EC08F099EF03F029042A10D8A4C3EFF2
:1009800004F0C5EF04F0E5EF04F081B6CAEF04F01F
:10099000CCEF04F0E5EF04F0000E2A6E000E296E95
:1009A000000E346E010E336E819E819A6AEC08F05F
:1009B0008198370E5D6E000E5E6E010E5F6E060E44
:1009C000606E91EC08F099EF03F01200000E926E49
:1009D000000E956E0F0EC16E4EC056F05650D8A444
:1009E000F4EF04F0F6EF04F0F8EF04F083EF05F015
:1009F000FF0E5624466E476AFF0E4722000E496ED0
:100A00000A0E486E4AEC07F04650536EFF0E56240D
:100A1000466E476AFF0E4722000E496E0A0E486E68
:100A2000E8EC06F04650546E3C0E576EFF0E57240D
:100A3000466E476AFF0E4722000E496E0A0E486E48
:100A40004AEC07F04650516EFF0E5724466E476A37
:100A5000FF0E4722000E496E0A0E486EE8EC06F0C3
:100A60004650526E000E556E200E806E51508AEC2C
:100A700005F0836E030E506E980EE82EFED7502EB2
:100A8000FCD7100E806E52508AEC05F0836E030E78
:100A9000506E980EE82EFED7502EFCD7080E806EB2
:100AA00053508AEC05F0836E030E506E980EE82EBC
:100AB000FED7502EFCD7040E806E54508AEC05F001
:100AC000836E030E506E980EE82EFED7502EFCD784
:100AD000552A1D0E55646FEF05F071EF05F034EFE8
:100AE00005F057065750D8A478EF05F07AEF05F0D7
:100AF00016EF05F056065650D8A481EF05F083EFA7
:100B000005F0F8EF04F0000E806E000E4F6E010E3F
:100B10004E6E1200486EC0EF05F03F0E0DEF06F06E
:100B2000060E0DEF06F05B0E0DEF06F04F0E0DEF0B
:100B300006F0660E0DEF06F06D0E0DEF06F07D0E61
:100B40000DEF06F0070E0DEF06F07F0E0DEF06F02D
:100B50006F0E0DEF06F0770E0DEF06F07C0E0DEF29
:100B600006F0580E0DEF06F05E0E0DEF06F0790E52
:100B70000DEF06F0710E0DEF06F0000E0DEF06F012
:100B80004850466E476A4750000AD8B4CAEF05F08D
:100B9000BDEF05F04650000AD8B48DEF05F0010A0C
:100BA000D8B490EF05F0030AD8B493EF05F0010A2A
:100BB000D8B496EF05F0070AD8B499EF05F0010A0A
:100BC000D8B49CEF05F0030AD8B49FEF05F0010AF2
:100BD000D8B4A2EF05F00F0AD8B4A5EF05F0010ACA
:100BE000D8B4A8EF05F0030AD8B4ABEF05F0010ABA
:100BF000D8B4AEEF05F0070AD8B4B1EF05F0010A9A
:100C0000D8B4B4EF05F0030AD8B4B7EF05F0010A81
:100C1000D8B4BAEF05F0BDEF05F0120051C0D9FF0E
:100C200052C0DAFFDECFF6FFDDCFF7FF0800F55048
:100C3000250AD8A41EEF06F020EF06F067EF06F0B5
:100C400051C0D9FF52C0DAFFDE2A000EDD22000EAD
:100C5000246E000E236E23C027F024C028F02568E0
:100C6000266851C0D9FF52C0DAFFDECFF6FFDDCFD4
:100C7000F7FF0800F550250AD8A441EF06F043EF2E
:100C800006F05AEF06F051C0D9FF52C0DAFFDE2A53
:100C9000000EDD22000E476E250E466E4FC048F056
:100CA00050C049F083EC06F0000E506E010E4F6EFE
:100CB00082EF06F051C0D9FF52C0DAFFDE2A000EE3
:100CC000DD22000E506E000E4F6E82EF06F051C016
:100CD000D9FF52C0DAFFDECFF6FFDDCFF7FF080005
:100CE000F550466E476A4FC048F050C049F083EC5B
:100CF00006F051C0D9FF52C0DAFFDE2A000EDD2215
:100D000054EF06F0120048504910D8B48AEF06F0AC
:100D10008CEF06F095EF06F048504910D8A493EFF9
:100D200006F095EF06F09AEF06F046500BEC09F04E
:100D3000E7EF06F020EE04F04850D9264950DA22B9
:100D4000DE50DE10D8B4A7EF06F0A9EF06F0C4EF2E
:100D500006F020EE04F04850D9264950DA2210EE71
:100D600002F04850E1264950E222DE50E65CE650AF
:100D7000800A4E6EDE50800A4E58D8B0C2EF06F0A0
:100D8000C4EF06F0E7EF06F020EE02F04850D92657
:100D90004950DA22DECF4AF0DDCF4BF048C0D9FF10
:100DA00049C0DAFFDECF4CF0DDCF4DF04A504C2485
:100DB000D96E4B504D20DA6E46C0DFFF20EE02F0B8
:100DC0004850D9264950DA22DE2A000EDD221200D0
:100DD000000E4B6E49BEF1EF06F0EFEF06F0F7EFB5
:100DE00006F0486C491ED8B0492A010E4B6E47BE2A
:100DF000FEEF06F0FCEF06F004EF07F0466C471E2E
:100E0000D8B0472A010E4B1A000E4D6E000E4C6EE4
:100E100048504910D8B40FEF07F011EF07F039EF41
:100E200007F0010E4A6E19EF07F0D89048364936A0
:100E30004A2A49AE1EEF07F020EF07F015EF07F042
:100E4000D8904C364D364850465C49504758D8A04B
:100E50002CEF07F02EEF07F033EF07F04850465E17
:100E60004950475A4C80D890493248324A2E20EF98
:100E700007F04B50D8B43FEF07F041EF07F045EFD4
:100E800007F04C6C4D1ED8B04D2A4CC046F04DC0FA
:100E900047F01200000E4B6E47BE53EF07F051EFC4
:100EA00007F059EF07F0466C471ED8B0472A010EED
:100EB0004B6E49BE60EF07F05EEF07F064EF07F09E
:100EC000486C491ED8B0492A48504910D8B46BEF35
:100ED00007F06DEF07F091EF07F0010E4A6E75EF26
:100EE00007F0D890483649364A2A49AE7AEF07F0DB
:100EF0007CEF07F071EF07F04850465C49504758C7
:100F0000D8A085EF07F087EF07F08BEF07F0485088
:100F1000465E4950475AD890493248324A2E7CEFB3
:100F200007F04B50D8B497EF07F099EF07F09DEF1B
:100F300007F0466C471ED8B0472A46C046F047C067
:100F400047F01200000E4D6EBFEF07F04D504924E0
:100F50004B6E000E4A204C6E4BC0F6FF4CC0F7FFA4
:100F6000F86A050EF76403D00800F55005D0F6CFF7
:100F7000E1FFF7CFE2FFE750B8EC08F04D2A4D5003
:100F800049244B6E000E4A204C6E4BC0F6FF4CC0FD
:100F9000F7FFF86A050EF76403D00800F55005D096
:100FA000F6CFE1FFF7CFE2FFE7500009D8A4DBEF6F
:100FB00007F0DDEF07F0A6EF07F0120084928494AB
:100FC000340E496EF20EE82EFED7492EFCD78482ED
:100FD000380ECFEC08F00D0E496EFC0EE82EFED751
:100FE000492EFCD7380ECFEC08F0030E496E980E50
:100FF000E82EFED7492EFCD7380ECFEC08F0080EAD
:10100000CFEC08F00F0ECFEC08F0010ECFEC08F09B
:10101000380ECFEC08F0800ECFEC08F0120057C06D
:101020005BF058C05CF0000E226E000E216E2BEFBC
:1010300008F055C04FF056C050F05B0E516E000ED8
:10104000526E59C053F05AC054F00EEC06F04F5097
:101050002126505022225BC0F6FF5CC0F7FF08003B
:10106000F5500009D8A437EF08F039EF08F019EF70
:1010700008F021C055F022C056F01200000E956E07
:10108000000E966E000E946E0F0E936EDEEC07F05F
:10109000000E346E010E336E000E326E000E316E95
:1010A000000E306E000E2F6E000E2E6E000E2D6E96
:1010B000000E2C6E000E2B6E000E2A6E000E296E96
:1010C000819E819A8198819C20EC03F064EF08F066
:1010D00000EF00F0000E486E000E476E82821A0E7E
:1010E000466EF80EE82EFED7462EFCD700D0829230
:1010F0001A0E466EF80EE82EFED7462EFCD700D00C
:10110000474A482A48BE8EEF08F0485009E1050ECC
:10111000475CD8A08EEF08F090EF08F06EEF08F073
:101120001200610E636E000E646E5DC065F05EC0FD
:1011300066F0000E686E000E676E000E6A6E000E9E
:10114000696E650E556E000E566E5FC057F060C03A
:1011500058F0630E596E000E5A6E0FEC08F067508F
:101160005D24D96E68505E20DA6E000EDF6E1200CC
:10117000486E8482485007EC09F08484080E476E5C
:10118000CA0EE82EFED7472EFCD78492080E476E73
:10119000CA0EE82EFED7472EFCD784821200486E76
:1011A0008482485007EC09F08494080E476ECA0EFA
:1011B000E82EFED7472EFCD78492080E476ECA0E43
:1011C000E82EFED7472EFCD784821200010ECFEC0A
:1011D00008F0850ECFEC08F00B0E496E060E4A6E35
:1011E000A2EC07F0950ECFEC08F0370E496E000E1A
:1011F0004A6EA2EC07F0120000EE01F0450EEE6A16
:10120000E806FDE1000EF86E00013EEF08F0466EC4
:0812100046C083FF120012002A
:020000040020DA
:08000000FFFFFFFFFFFFFFFF00
:020000040030CA
:0E000000FF02191EFF8180FF0FC00FE00F40AE
:00000001FF
